:0400000080313028F3
:100008007E1480312000911E0A280B282E28911278
:1000180023009D181028112815281D1D142815289F
:1000280019289D0190309D002E28720803191D285B
:100038001E282328013022008C00F20127282200E4
:100048008C01F201F20A23001908F10071088031CD
:100058006E2080317E10090080313228F2017E1036
:1000680020008031372880316420803123008C01C2
:100078008D0102309E0090309D0008309F00333083
:100088009B0020009112210091160B178B174B280B
:100098008031302822008C018D01FF3021008C0036
:1000A800FF308D00FE3023008D001F308C002400AF
:1000B8008D018C012100951722009D019E010800E9
:1000C80080314E20803180317720803180317E2010
:1000D80080310800F00023009E1C732874286F28C4
:1000E80070089A00080072302100990098012200D7
:0C00F80096010800163021009700080057
:020000040001F9
:08000000FF3FFF3FFF3FFF3F00
:04000E00E43FFF1EAE
:00000001FF
